{
  "transactions": [
    {
      "hash": "0x7c5fcb1e1e607d1526509f89a5a30b6eb93f6fafcce6e5705ec39bd3e7c6c8b1",
      "transactionType": "CALL",
      "contractName": null,
      "contractAddress": "0x9d29d33d4329640e96cc259e141838eb3eb2f1d9",
      "function": "flip(bool)",
      "arguments": [
        "false"
      ],
      "transaction": {
        "from": "0x1a2cdc9ea7dfc55aeadb314bb8c3b09e938c989b",
        "to": "0x9d29d33d4329640e96cc259e141838eb3eb2f1d9",
        "gas": "0x11efc",
        "value": "0x0",
        "input": "0x1d263f670000000000000000000000000000000000000000000000000000000000000000",
        "nonce": "0x8e",
        "chainId": "0xaa36a7"
      },
      "additionalContracts": [],
      "isFixedGasLimit": false
    },
    {
      "hash": "0x39c55a5edf118b222e1ec4959e97dcbe4561f740d5d5f7382309f021ea61a1ce",
      "transactionType": "CREATE",
      "contractName": "AddPointHack",
      "contractAddress": "0x186bf94787bb1943482d2369ee0451c50387899b",
      "function": null,
      "arguments": [
        "0x9D29D33d4329640e96cC259E141838EB3EB2f1d9"
      ],
      "transaction": {
        "from": "0x1a2cdc9ea7dfc55aeadb314bb8c3b09e938c989b",
        "gas": "0x2a4d2",
        "value": "0x0",
        "input": "0x608060405234801561001057600080fd5b506040516101693803806101698339818101604052602081101561003357600080fd5b5051600080546001600160a01b039092166001600160a01b0319909216919091179055610104806100656000396000f3fe6080604052348015600f57600080fd5b506004361060325760003560e01c806341cd54bb146037578063eeeb7a3614603f575b600080fd5b603d6061565b005b604560bf565b604080516001600160a01b039092168252519081900360200190f35b60008054604080516335f9cd5560e11b815290516001600160a01b03909216928392636bf39aaa92600480820193929182900301818387803b15801560a557600080fd5b505af115801560b8573d6000803e3d6000fd5b5050505050565b6000546001600160a01b03168156fea2646970667358221220ab2d1ee4483bb09af1ef01c0aa162bf995bda5c67d5f7ef23573c51122cab39064736f6c634300070000330000000000000000000000009d29d33d4329640e96cc259e141838eb3eb2f1d9",
        "nonce": "0x8f",
        "chainId": "0xaa36a7"
      },
      "additionalContracts": [],
      "isFixedGasLimit": false
    },
    {
      "hash": "0xfed0374db1acdc36bddbca2db80a349db37359ca79220ac4059179dd7c5e2155",
      "transactionType": "CALL",
      "contractName": "AddPointHack",
      "contractAddress": "0x186bf94787bb1943482d2369ee0451c50387899b",
      "function": "attackAddPoint()",
      "arguments": [],
      "transaction": {
        "from": "0x1a2cdc9ea7dfc55aeadb314bb8c3b09e938c989b",
        "to": "0x186bf94787bb1943482d2369ee0451c50387899b",
        "gas": "0x18bf7",
        "value": "0x0",
        "input": "0x41cd54bb",
        "nonce": "0x90",
        "chainId": "0xaa36a7"
      },
      "additionalContracts": [],
      "isFixedGasLimit": false
    },
    {
      "hash": "0x08729d75c0159598bf2a2d9008d8138bdfc318c7abf1a714f0de6d439d14d574",
      "transactionType": "CALL",
      "contractName": null,
      "contractAddress": "0x9d29d33d4329640e96cc259e141838eb3eb2f1d9",
      "function": "transfer(address,uint256)",
      "arguments": [
        "0x0000000000000000000000000000000000000000",
        "1"
      ],
      "transaction": {
        "from": "0x1a2cdc9ea7dfc55aeadb314bb8c3b09e938c989b",
        "to": "0x9d29d33d4329640e96cc259e141838eb3eb2f1d9",
        "gas": "0x20666",
        "value": "0x0",
        "input": "0xa9059cbb00000000000000000000000000000000000000000000000000000000000000000000000000000000000000000000000000000000000000000000000000000001",
        "nonce": "0x91",
        "chainId": "0xaa36a7"
      },
      "additionalContracts": [],
      "isFixedGasLimit": false
    },
    {
      "hash": "0xe034c32ccf2e8030c969d89be7ad9a6acbf2930f4793ba9b593c203dde4b66e6",
      "transactionType": "CREATE",
      "contractName": null,
      "contractAddress": "0x7d0c1f35d19fe7878a86d65556b7f94ad7bc2962",
      "function": null,
      "arguments": null,
      "transaction": {
        "from": "0x1a2cdc9ea7dfc55aeadb314bb8c3b09e938c989b",
        "gas": "0x3b52c",
        "value": "0x0",
        "input": "0x60806040526001805460ff60a01b1916600160a01b17905534801561002357600080fd5b506040516102183803806102188339818101604052602081101561004657600080fd5b5051600080546001600160a01b039283166001600160a01b031991821617918290556001805490911691909216179055610193806100856000396000f3fe608060405234801561001057600080fd5b50600436106100415760003560e01c80635f9a4bca14610046578063b58a14fe14610077578063eeeb7a3614610096575b600080fd5b6100636004803603602081101561005c57600080fd5b50356100ba565b604080519115158252519081900360200190f35b6100946004803603602081101561008d57600080fd5b50356100e6565b005b61009e61014e565b604080516001600160a01b039092168252519081900360200190f35b6001805460ff600160a01b808304821615810260ff60a01b199093169290921792839055910416919050565b60015460408051633b669c4d60e21b81526004810184905290516001600160a01b039092169163ed9a71349160248082019260009290919082900301818387803b15801561013357600080fd5b505af1158015610147573d6000803e3d6000fd5b5050505050565b6000546001600160a01b03168156fea2646970667358221220285dc14bc2d9bb1337baf27394c9cb58adc39b3e77fd66442675d54fadad707d64736f6c634300070000330000000000000000000000009d29d33d4329640e96cc259e141838eb3eb2f1d9",
        "nonce": "0x92",
        "chainId": "0xaa36a7"
      },
      "additionalContracts": [],
      "isFixedGasLimit": false
    },
    {
      "hash": "0x4842a8a2eca1bf50ab472fb192b3ed3e177f8154c7e9c9817fefe7d8ea7209b8",
      "transactionType": "CALL",
      "contractName": null,
      "contractAddress": "0x7d0c1f35d19fe7878a86d65556b7f94ad7bc2962",
      "function": "goToHack(uint256)",
      "arguments": [
        "2000"
      ],
      "transaction": {
        "from": "0x1a2cdc9ea7dfc55aeadb314bb8c3b09e938c989b",
        "to": "0x7d0c1f35d19fe7878a86d65556b7f94ad7bc2962",
        "gas": "0x24b63",
        "value": "0x0",
        "input": "0xb58a14fe00000000000000000000000000000000000000000000000000000000000007d0",
        "nonce": "0x93",
        "chainId": "0xaa36a7"
      },
      "additionalContracts": [],
      "isFixedGasLimit": false
    },
    {
      "hash": "0x7641732c04527e9dce45e6239cc6db0655f80d8d2e077c64881da9fe601437b0",
      "transactionType": "CALL",
      "contractName": null,
      "contractAddress": "0x9d29d33d4329640e96cc259e141838eb3eb2f1d9",
      "function": "sendKey(bytes16)",
      "arguments": [
        "0x4cded594c37730434fcf53dd25e29ab500000000000000000000000000000000"
      ],
      "transaction": {
        "from": "0x1a2cdc9ea7dfc55aeadb314bb8c3b09e938c989b",
        "to": "0x9d29d33d4329640e96cc259e141838eb3eb2f1d9",
        "gas": "0x12186",
        "value": "0x0",
        "input": "0x9d3ad91a4cded594c37730434fcf53dd25e29ab500000000000000000000000000000000",
        "nonce": "0x94",
        "chainId": "0xaa36a7"
      },
      "additionalContracts": [],
      "isFixedGasLimit": false
    },
    {
      "hash": "0x1b5e746d2ccbe3d318cac092c6186f8f8fe26c555a253fc2c9e097c3468d1410",
      "transactionType": "CALL",
      "contractName": null,
      "contractAddress": "0x9d29d33d4329640e96cc259e141838eb3eb2f1d9",
      "function": "sendPassword(bytes32)",
      "arguments": [
        "0xde241fe7f783f2ed343248c0762dade0cf4eea6ed49dfe2f9f1267483c9eade8"
      ],
      "transaction": {
        "from": "0x1a2cdc9ea7dfc55aeadb314bb8c3b09e938c989b",
        "to": "0x9d29d33d4329640e96cc259e141838eb3eb2f1d9",
        "gas": "0x1220d",
        "value": "0x0",
        "input": "0x5c8d2c38de241fe7f783f2ed343248c0762dade0cf4eea6ed49dfe2f9f1267483c9eade8",
        "nonce": "0x95",
        "chainId": "0xaa36a7"
      },
      "additionalContracts": [],
      "isFixedGasLimit": false
    },
    {
      "hash": "0x1f9bdb7fd1304e200a7762ca4593f949ab66e838ab4a7aa022e780a2af3bef87",
      "transactionType": "CALL",
      "contractName": null,
      "contractAddress": "0x9d29d33d4329640e96cc259e141838eb3eb2f1d9",
      "function": "contribute()",
      "arguments": [],
      "transaction": {
        "from": "0x1a2cdc9ea7dfc55aeadb314bb8c3b09e938c989b",
        "to": "0x9d29d33d4329640e96cc259e141838eb3eb2f1d9",
        "gas": "0x10d13",
        "value": "0x5af3107a4000",
        "input": "0xd7bb99ba",
        "nonce": "0x96",
        "chainId": "0xaa36a7"
      },
      "additionalContracts": [],
      "isFixedGasLimit": false
    },
    {
      "hash": "0x4502e1f80ea85787f7d0b8fa10c6e3bcf6be83862f64be1e289e50eba680b56b",
      "transactionType": "CALL",
      "contractName": null,
      "contractAddress": "0x9d29d33d4329640e96cc259e141838eb3eb2f1d9",
      "function": null,
      "arguments": null,
      "transaction": {
        "from": "0x1a2cdc9ea7dfc55aeadb314bb8c3b09e938c989b",
        "to": "0x9d29d33d4329640e96cc259e141838eb3eb2f1d9",
        "gas": "0x11e83",
        "value": "0x5af3107a4000",
        "input": "0x",
        "nonce": "0x97",
        "chainId": "0xaa36a7"
      },
      "additionalContracts": [],
      "isFixedGasLimit": false
    }
  ],
  "receipts": [
    {
      "status": "0x1",
      "cumulativeGasUsed": "0xb4933d",
      "logs": [],
      "logsBloom": "0x00000000000000000000000000000000000000000000000000000000000000000000000000000000000000000000000000000000000000000000000000000000000000000000000000000000000000000000000000000000000000000000000000000000000000000000000000000000000000000000000000000000000000000000000000000000000000000000000000000000000000000000000000000000000000000000000000000000000000000000000000000000000000000000000000000000000000000000000000000000000000000000000000000000000000000000000000000000000000000000000000000000000000000000000000000000",
      "type": "0x2",
      "transactionHash": "0x7c5fcb1e1e607d1526509f89a5a30b6eb93f6fafcce6e5705ec39bd3e7c6c8b1",
      "transactionIndex": "0x80",
      "blockHash": "0xb2d794b35c1e7a638c800649213ca0b974171efde13068ee241ef3b41bfe7f83",
      "blockNumber": "0x60fa9f",
      "gasUsed": "0xcfc6",
      "effectiveGasPrice": "0x50825d8db",
      "from": "0x1a2cdc9ea7dfc55aeadb314bb8c3b09e938c989b",
      "to": "0x9d29d33d4329640e96cc259e141838eb3eb2f1d9",
      "contractAddress": null
    },
    {
      "status": "0x1",
      "cumulativeGasUsed": "0xb69bdf",
      "logs": [],
      "logsBloom": "0x00000000000000000000000000000000000000000000000000000000000000000000000000000000000000000000000000000000000000000000000000000000000000000000000000000000000000000000000000000000000000000000000000000000000000000000000000000000000000000000000000000000000000000000000000000000000000000000000000000000000000000000000000000000000000000000000000000000000000000000000000000000000000000000000000000000000000000000000000000000000000000000000000000000000000000000000000000000000000000000000000000000000000000000000000000000",
      "type": "0x2",
      "transactionHash": "0x39c55a5edf118b222e1ec4959e97dcbe4561f740d5d5f7382309f021ea61a1ce",
      "transactionIndex": "0x81",
      "blockHash": "0xb2d794b35c1e7a638c800649213ca0b974171efde13068ee241ef3b41bfe7f83",
      "blockNumber": "0x60fa9f",
      "gasUsed": "0x208a2",
      "effectiveGasPrice": "0x50825d8db",
      "from": "0x1a2cdc9ea7dfc55aeadb314bb8c3b09e938c989b",
      "to": null,
      "contractAddress": "0x186bf94787bb1943482d2369ee0451c50387899b"
    },
    {
      "status": "0x1",
      "cumulativeGasUsed": "0xb7ba8c",
      "logs": [],
      "logsBloom": "0x00000000000000000000000000000000000000000000000000000000000000000000000000000000000000000000000000000000000000000000000000000000000000000000000000000000000000000000000000000000000000000000000000000000000000000000000000000000000000000000000000000000000000000000000000000000000000000000000000000000000000000000000000000000000000000000000000000000000000000000000000000000000000000000000000000000000000000000000000000000000000000000000000000000000000000000000000000000000000000000000000000000000000000000000000000000",
      "type": "0x2",
      "transactionHash": "0xfed0374db1acdc36bddbca2db80a349db37359ca79220ac4059179dd7c5e2155",
      "transactionIndex": "0x82",
      "blockHash": "0xb2d794b35c1e7a638c800649213ca0b974171efde13068ee241ef3b41bfe7f83",
      "blockNumber": "0x60fa9f",
      "gasUsed": "0x11ead",
      "effectiveGasPrice": "0x50825d8db",
      "from": "0x1a2cdc9ea7dfc55aeadb314bb8c3b09e938c989b",
      "to": "0x186bf94787bb1943482d2369ee0451c50387899b",
      "contractAddress": null
    },
    {
      "status": "0x1",
      "cumulativeGasUsed": "0xb931dc",
      "logs": [],
      "logsBloom": "0x00000000000000000000000000000000000000000000000000000000000000000000000000000000000000000000000000000000000000000000000000000000000000000000000000000000000000000000000000000000000000000000000000000000000000000000000000000000000000000000000000000000000000000000000000000000000000000000000000000000000000000000000000000000000000000000000000000000000000000000000000000000000000000000000000000000000000000000000000000000000000000000000000000000000000000000000000000000000000000000000000000000000000000000000000000000",
      "type": "0x2",
      "transactionHash": "0x08729d75c0159598bf2a2d9008d8138bdfc318c7abf1a714f0de6d439d14d574",
      "transactionIndex": "0x83",
      "blockHash": "0xb2d794b35c1e7a638c800649213ca0b974171efde13068ee241ef3b41bfe7f83",
      "blockNumber": "0x60fa9f",
      "gasUsed": "0x17750",
      "effectiveGasPrice": "0x50825d8db",
      "from": "0x1a2cdc9ea7dfc55aeadb314bb8c3b09e938c989b",
      "to": "0x9d29d33d4329640e96cc259e141838eb3eb2f1d9",
      "contractAddress": null
    },
    {
      "status": "0x1",
      "cumulativeGasUsed": "0xbc0bfe",
      "logs": [],
      "logsBloom": "0x00000000000000000000000000000000000000000000000000000000000000000000000000000000000000000000000000000000000000000000000000000000000000000000000000000000000000000000000000000000000000000000000000000000000000000000000000000000000000000000000000000000000000000000000000000000000000000000000000000000000000000000000000000000000000000000000000000000000000000000000000000000000000000000000000000000000000000000000000000000000000000000000000000000000000000000000000000000000000000000000000000000000000000000000000000000",
      "type": "0x2",
      "transactionHash": "0xe034c32ccf2e8030c969d89be7ad9a6acbf2930f4793ba9b593c203dde4b66e6",
      "transactionIndex": "0x84",
      "blockHash": "0xb2d794b35c1e7a638c800649213ca0b974171efde13068ee241ef3b41bfe7f83",
      "blockNumber": "0x60fa9f",
      "gasUsed": "0x2da22",
      "effectiveGasPrice": "0x50825d8db",
      "from": "0x1a2cdc9ea7dfc55aeadb314bb8c3b09e938c989b",
      "to": null,
      "contractAddress": "0x7d0c1f35d19fe7878a86d65556b7f94ad7bc2962"
    },
    {
      "status": "0x1",
      "cumulativeGasUsed": "0xbd9da0",
      "logs": [],
      "logsBloom": "0x00000000000000000000000000000000000000000000000000000000000000000000000000000000000000000000000000000000000000000000000000000000000000000000000000000000000000000000000000000000000000000000000000000000000000000000000000000000000000000000000000000000000000000000000000000000000000000000000000000000000000000000000000000000000000000000000000000000000000000000000000000000000000000000000000000000000000000000000000000000000000000000000000000000000000000000000000000000000000000000000000000000000000000000000000000000",
      "type": "0x2",
      "transactionHash": "0x4842a8a2eca1bf50ab472fb192b3ed3e177f8154c7e9c9817fefe7d8ea7209b8",
      "transactionIndex": "0x85",
      "blockHash": "0xb2d794b35c1e7a638c800649213ca0b974171efde13068ee241ef3b41bfe7f83",
      "blockNumber": "0x60fa9f",
      "gasUsed": "0x191a2",
      "effectiveGasPrice": "0x50825d8db",
      "from": "0x1a2cdc9ea7dfc55aeadb314bb8c3b09e938c989b",
      "to": "0x7d0c1f35d19fe7878a86d65556b7f94ad7bc2962",
      "contractAddress": null
    },
    {
      "status": "0x1",
      "cumulativeGasUsed": "0xbe6f3d",
      "logs": [],
      "logsBloom": "0x00000000000000000000000000000000000000000000000000000000000000000000000000000000000000000000000000000000000000000000000000000000000000000000000000000000000000000000000000000000000000000000000000000000000000000000000000000000000000000000000000000000000000000000000000000000000000000000000000000000000000000000000000000000000000000000000000000000000000000000000000000000000000000000000000000000000000000000000000000000000000000000000000000000000000000000000000000000000000000000000000000000000000000000000000000000",
      "type": "0x2",
      "transactionHash": "0x7641732c04527e9dce45e6239cc6db0655f80d8d2e077c64881da9fe601437b0",
      "transactionIndex": "0x86",
      "blockHash": "0xb2d794b35c1e7a638c800649213ca0b974171efde13068ee241ef3b41bfe7f83",
      "blockNumber": "0x60fa9f",
      "gasUsed": "0xd19d",
      "effectiveGasPrice": "0x50825d8db",
      "from": "0x1a2cdc9ea7dfc55aeadb314bb8c3b09e938c989b",
      "to": "0x9d29d33d4329640e96cc259e141838eb3eb2f1d9",
      "contractAddress": null
    },
    {
      "status": "0x1",
      "cumulativeGasUsed": "0xbf413c",
      "logs": [],
      "logsBloom": "0x00000000000000000000000000000000000000000000000000000000000000000000000000000000000000000000000000000000000000000000000000000000000000000000000000000000000000000000000000000000000000000000000000000000000000000000000000000000000000000000000000000000000000000000000000000000000000000000000000000000000000000000000000000000000000000000000000000000000000000000000000000000000000000000000000000000000000000000000000000000000000000000000000000000000000000000000000000000000000000000000000000000000000000000000000000000",
      "type": "0x2",
      "transactionHash": "0x1b5e746d2ccbe3d318cac092c6186f8f8fe26c555a253fc2c9e097c3468d1410",
      "transactionIndex": "0x87",
      "blockHash": "0xb2d794b35c1e7a638c800649213ca0b974171efde13068ee241ef3b41bfe7f83",
      "blockNumber": "0x60fa9f",
      "gasUsed": "0xd1ff",
      "effectiveGasPrice": "0x50825d8db",
      "from": "0x1a2cdc9ea7dfc55aeadb314bb8c3b09e938c989b",
      "to": "0x9d29d33d4329640e96cc259e141838eb3eb2f1d9",
      "contractAddress": null
    },
    {
      "status": "0x1",
      "cumulativeGasUsed": "0xc0040b",
      "logs": [],
      "logsBloom": "0x00000000000000000000000000000000000000000000000000000000000000000000000000000000000000000000000000000000000000000000000000000000000000000000000000000000000000000000000000000000000000000000000000000000000000000000000000000000000000000000000000000000000000000000000000000000000000000000000000000000000000000000000000000000000000000000000000000000000000000000000000000000000000000000000000000000000000000000000000000000000000000000000000000000000000000000000000000000000000000000000000000000000000000000000000000000",
      "type": "0x2",
      "transactionHash": "0x1f9bdb7fd1304e200a7762ca4593f949ab66e838ab4a7aa022e780a2af3bef87",
      "transactionIndex": "0x88",
      "blockHash": "0xb2d794b35c1e7a638c800649213ca0b974171efde13068ee241ef3b41bfe7f83",
      "blockNumber": "0x60fa9f",
      "gasUsed": "0xc2cf",
      "effectiveGasPrice": "0x50825d8db",
      "from": "0x1a2cdc9ea7dfc55aeadb314bb8c3b09e938c989b",
      "to": "0x9d29d33d4329640e96cc259e141838eb3eb2f1d9",
      "contractAddress": null
    },
    {
      "status": "0x1",
      "cumulativeGasUsed": "0xc0d37a",
      "logs": [],
      "logsBloom": "0x00000000000000000000000000000000000000000000000000000000000000000000000000000000000000000000000000000000000000000000000000000000000000000000000000000000000000000000000000000000000000000000000000000000000000000000000000000000000000000000000000000000000000000000000000000000000000000000000000000000000000000000000000000000000000000000000000000000000000000000000000000000000000000000000000000000000000000000000000000000000000000000000000000000000000000000000000000000000000000000000000000000000000000000000000000000",
      "type": "0x2",
      "transactionHash": "0x4502e1f80ea85787f7d0b8fa10c6e3bcf6be83862f64be1e289e50eba680b56b",
      "transactionIndex": "0x89",
      "blockHash": "0xb2d794b35c1e7a638c800649213ca0b974171efde13068ee241ef3b41bfe7f83",
      "blockNumber": "0x60fa9f",
      "gasUsed": "0xcf6f",
      "effectiveGasPrice": "0x50825d8db",
      "from": "0x1a2cdc9ea7dfc55aeadb314bb8c3b09e938c989b",
      "to": "0x9d29d33d4329640e96cc259e141838eb3eb2f1d9",
      "contractAddress": null
    }
  ],
  "libraries": [],
  "pending": [],
  "returns": {},
  "timestamp": 1721643530,
  "chain": 11155111,
  "commit": "94ed679"
}