{
  "transactions": [
    {
      "hash": "0x7f5c639e8a548756f94401da9b0bfe27345d03bc40033891346b2926bdf66e54",
      "transactionType": "CALL",
      "contractName": null,
      "contractAddress": "0x9d29d33d4329640e96cc259e141838eb3eb2f1d9",
      "function": "flip(bool)",
      "arguments": [
        "false"
      ],
      "transaction": {
        "from": "0x1a2cdc9ea7dfc55aeadb314bb8c3b09e938c989b",
        "to": "0x9d29d33d4329640e96cc259e141838eb3eb2f1d9",
        "gas": "0xce2d",
        "value": "0x0",
        "input": "0x1d263f670000000000000000000000000000000000000000000000000000000000000000",
        "nonce": "0x9f",
        "chainId": "0xaa36a7"
      },
      "additionalContracts": [],
      "isFixedGasLimit": false
    }
  ],
  "receipts": [
    {
      "status": "0x1",
      "cumulativeGasUsed": "0xd2a199",
      "logs": [],
      "logsBloom": "0x00000000000000000000000000000000000000000000000000000000000000000000000000000000000000000000000000000000000000000000000000000000000000000000000000000000000000000000000000000000000000000000000000000000000000000000000000000000000000000000000000000000000000000000000000000000000000000000000000000000000000000000000000000000000000000000000000000000000000000000000000000000000000000000000000000000000000000000000000000000000000000000000000000000000000000000000000000000000000000000000000000000000000000000000000000000",
      "type": "0x2",
      "transactionHash": "0x7f5c639e8a548756f94401da9b0bfe27345d03bc40033891346b2926bdf66e54",
      "transactionIndex": "0x4c",
      "blockHash": "0xe91cfd582ec415ba3a5fda9cf44ed4cfaa9f68d80e5fc6ef3d77b3e3cf5241ea",
      "blockNumber": "0x60fab6",
      "gasUsed": "0x8cfa",
      "effectiveGasPrice": "0x57cc316f6",
      "from": "0x1a2cdc9ea7dfc55aeadb314bb8c3b09e938c989b",
      "to": "0x9d29d33d4329640e96cc259e141838eb3eb2f1d9",
      "contractAddress": null
    }
  ],
  "libraries": [],
  "pending": [],
  "returns": {},
  "timestamp": 1721643846,
  "chain": 11155111,
  "commit": "94ed679"
}