{
  "transactions": [
    {
      "hash": "0x4f561a33961cebce559aebcaf8f995c9333c4ae278679b6768d6ee88fd43d778",
      "transactionType": "CALL",
      "contractName": null,
      "contractAddress": "0x9d29d33d4329640e96cc259e141838eb3eb2f1d9",
      "function": "flip(bool)",
      "arguments": [
        "false"
      ],
      "transaction": {
        "from": "0x1a2cdc9ea7dfc55aeadb314bb8c3b09e938c989b",
        "to": "0x9d29d33d4329640e96cc259e141838eb3eb2f1d9",
        "gas": "0xce2d",
        "value": "0x0",
        "input": "0x1d263f670000000000000000000000000000000000000000000000000000000000000000",
        "nonce": "0x9a",
        "chainId": "0xaa36a7"
      },
      "additionalContracts": [],
      "isFixedGasLimit": false
    }
  ],
  "receipts": [
    {
      "status": "0x1",
      "cumulativeGasUsed": "0xc606d9",
      "logs": [],
      "logsBloom": "0x00000000000000000000000000000000000000000000000000000000000000000000000000000000000000000000000000000000000000000000000000000000000000000000000000000000000000000000000000000000000000000000000000000000000000000000000000000000000000000000000000000000000000000000000000000000000000000000000000000000000000000000000000000000000000000000000000000000000000000000000000000000000000000000000000000000000000000000000000000000000000000000000000000000000000000000000000000000000000000000000000000000000000000000000000000000",
      "type": "0x2",
      "transactionHash": "0x4f561a33961cebce559aebcaf8f995c9333c4ae278679b6768d6ee88fd43d778",
      "transactionIndex": "0x47",
      "blockHash": "0x94cf21adc9e3dbffb5301c59d4fe87a5c32181819755bb4c3e8d299031561ba1",
      "blockNumber": "0x60faab",
      "gasUsed": "0x8cfa",
      "effectiveGasPrice": "0x57c269712",
      "from": "0x1a2cdc9ea7dfc55aeadb314bb8c3b09e938c989b",
      "to": "0x9d29d33d4329640e96cc259e141838eb3eb2f1d9",
      "contractAddress": null
    }
  ],
  "libraries": [],
  "pending": [],
  "returns": {},
  "timestamp": 1721643685,
  "chain": 11155111,
  "commit": "94ed679"
}